:100000000C9419130C9485150C94AC150C94D31501
:100010000C94FA150C9421160C9448160C946F1637
:100020000C9496160C947A130C947A130C947A13FD
:100030000C947A130C947A130C947A130C947A130C
:100040000C947A130C94D6190C947A130C947A139A
:100050000C947A130C943A170C947A130C947A1328
:100060000C947A130C947A130C947A130C947A13DC
:100070000C947A130C947A130C947A130C947A13CC
:100080000C947A130C947A130C947A130C947A13BC
:100090000C94963A0C94FE390C94C1390C947A1352
:1000A0000C947A130C947A130C947A130C947A139C
:1000B0000C947A130C947A130C947A130C947A138C
:1000C0000C947A130C947A130C947A13207C2D3EA2
:1000D000204E54502D536572766572205A656974AE
:1000E00020616B7475616C6973696572656E2066F9
:1000F00065686C67657363686C6167656E0D0A009F
:10010000207C2D3E204E54502D5365727665722012
:100110005A65697420616B7475616C697369657285
:10012000656E2E205A6569743A20253032643A256E
:100130003032643A253032642E253032640D0A00A4
:10014000207C202020444E53202020203A2025646B
:100150002E25642E25642E25640D0A00207C202087
:1001600020476174657761793A2025642E25642ED5
:1001700025642E25640D0A00207C2020204E657405
:100180006D61736B3A2025642E25642E25642E251F
:10019000640D0A00207C20202049502020202020AF
:1001A0003A2025642E25642E25642E25640D0A0030
:1001B000444843502D436F6E666967204665686CFE
:1001C00067657363686C6167656E0D0A0044484338
:1001D000502D436F6E666967206765686F6C740D9C
:1001E0000A00207C2D3E2056657273756368652079
:1001F000444843502D436F6E666967207A752068C6
:100200006F6C656E2E2000207C2D3E2054435020C4
:10021000696E697469616C6973696572740D0A004D
:10022000207C2D3E2055445020696E697469616CB4
:100230006973696572740D0A002D2B2D3E204152A1
:100240005020696E697469616C6973696572740DB7
:100250000A00454E4332386A363020696E69746947
:10026000616C69736965727420282048572D416458
:10027000643A20253032783A253032783A253032C7
:10028000783A253032783A253032783A253032784B
:1002900020290D0A006661696C656400436C6F6318
:1002A0006B7370656564203D2025642E25303364B2
:1002B0004D487A0D0A0056533130787820696E69BE
:1002C0007469616C6973696572656E2C2000434CBA
:1002D0004F434B20696E697469616C69736965721B
:1002E000740D0A004C45445F636F726520696E6946
:1002F0007469616C6973696572740D0A00554152C5
:100300005420696E697469616C6973696572740DF2
:100310000A004E65775F6D6963726F77656273651A
:1003200072766572206275696C64206F6E2041562A
:10033000522D6C6962632076657273696F6E3A2024
:10034000312E342E352F32303036313030392024B2
:1003500049643A206D61696E2E6320323820323054
:1003600030382D30362D32322032303A32383A3170
:10037000305A2073686172616E20242024526576A1
:100380006973696F6E3A20363720240D0A002563A1
:100390005B324A003E20000D0A2048656C700D0A51
:1003A0003D3D3D3D3D3D0D0A0D0A666C6F6F640994
:1003B0000973656E64657420446174656E206D69AF
:1003C00074206E204B6279746520756E64207A65A6
:1003D00069677420646965205A6569740D0A6172E1
:1003E000700909686F6C74207A752065696E657292
:1003F00020495020646965204D4143204164726565
:100400007373650D0A6E74700909686F6C742064EB
:10041000696520616B7475656C6C65205A656974DB
:1004200020766F6E2065696E656E204E54502D5398
:1004300065727665720D0A73747265616D09097370
:100440007069656C742065696E656E206D70332D02
:1004500053747265616D2C207765697465726520CF
:10046000496E666F7320756E74657220277374729F
:1004700065616D2068656C70270D0A646E730909EB
:100480007374656C6C742065696E6520444E532DE1
:10049000416E66726167650D0A6D656D09097A6561
:1004A0006967742064656E206D6178696D616C6543
:1004B0006E2066726569656E205370656963686554
:1004C000720D0A71756974090977617420776F6814
:1004D0006C203F0D0A73746174730909537461745D
:1004E000697374696B656E0D0A74696D6509097AC3
:1004F000656967742F7365747A7420646965205523
:100500006872202874696D652068683A6D6D3A7369
:1005100073290D0A0D0A002573203D2025642E2520
:10052000642E25642E25640D0A004B65696E2044F7
:100530004E532D45696E7472616720766F726861E3
:100540006E64656E0D0A00696E2025642E253032BA
:10055000642053656B756E64656E2E0D0A000A2566
:100560006C6420427974657320676573656E646599
:100570007420007300313233343536373839303136
:100580003233343536373839303132333435363723
:1005900038393031320056657262696E64756E6743
:1005A00020776972642067657363686C6F73736525
:1005B0006E0D0A0054696D653A20253032643A2583
:1005C0003032643A253032640D0A00536F636B6534
:1005D000743A2025640D0A0025642E25642E2564B6
:1005E0002E256420202020253032583A25303258DC
:1005F0003A253032583A253032583A253032583A76
:100600002530325820202025640D0A004950202032
:10061000202020202020202020204D414320202069
:100620002020202020202020202020202020545462
:100630004C0D0A004D41432041647265737365207F
:10064000253032583A253032583A25303258253A3A
:10065000253032583A253032583A253032580D0A72
:100660000054696D653A20253032643A2530326491
:100670003A253032640D0A0056657262696E6475FF
:100680006E6720776972642067657363686C6F7347
:1006900073656E0D0A0050485354415432207C203B
:1006A0003078253034580D0A0050485354415431A5
:1006B000207C203078253034580D0A005265762E83
:1006C000494420207C2020203078253032580D0AE3
:1006D000002D2D2D2D2D2D2D2D2B2D2D2D2D2D2D79
:1006E0002D2D0D0A005265672E202020207C2057DA
:1006F0006572740D0A00454E4332384A36303A0D61
:100700000A005443502D5458204572726F72733A48
:10071000202564205443502D5258204572726F7228
:10072000733A2025642028756E736F727465642097
:1007300025642C206F6C64736571202564290D0A73
:100740000D0A0045746865726E65743A20256C6404
:1007500020427974657320696E20256C6420506195
:10076000636B6574656E0D0A0057656C636F6D652C
:10077000206F6E2054696E792D54656C6E657473AC
:10078000657276657220302E3161210D0A427569DD
:100790006C64206F6E204156522D6C696263207626
:1007A000657273696F6E3A20312E342E352F3230D8
:1007B0003036313030390D0A556E642C205765695A
:1007C000746572205765697465722121210D0A3E96
:1007D000200054656C6E65742D53657276657220C9
:1007E0006765737461727465742061756620506FFB
:1007F00072742025642E0D0A00485454502F312E57
:1008000030203430330D0A436F6E74656E742D548E
:100810007970653A20746578742F68746D6C0D0A70
:100820004B6565702D416C6976653A20636C6F731A
:10083000650D0A0D0A3C48544D4C3E0D0A3C484596
:1008400041443E0D0A3C6D65746120687474702DDE
:1008500065717569763D22726566726573682220DE
:10086000636F6E74656E743D2232303B20223E0D04
:100870000A3C5449544C453E3430332046696C653B
:10088000206E6F7420666F756E64213C2F5449543E
:100890004C453E0D0A3430332046696C65206E6F3E
:1008A0007420666F756E64213C2F484541443E0DAF
:1008B0000A3C424F44593E0D0A00485454502D53AF
:1008C00065727665722067657374617274657420F1
:1008D00061756620506F72742025642E0D0A0073B6
:1008E000747265616D2E6367690073746174732E31
:1008F0006367690072657365742E6367690052658A
:100900007365743C2F424F44593E0D0A3C2F4854A6
:100910004D4C3E0D0A0D0A007265736574007265D8
:10092000736574007265736574003C666F726D2048
:10093000616374696F6E3D2272657365742E6367BF
:100940006922206D6574686F643D2267657422209A
:100950006163636570742D636861727365743D22B1
:1009600049534F2D383835392D31223E3C703E5396
:10097000747265616D2D55524C3A3C696E70757498
:10098000206E616D653D2274657874222073697AEA
:10099000653D223536223E3C2F703E3C703E3C6920
:1009A0006E70757420747970653D227375626D691F
:1009B0007422206E616D653D22726573657422201C
:1009C00076616C75653D227265736574223E3C2FBD
:1009D000703E3C2F666F726D3E3C2F424F44593E35
:1009E0000D0A3C2F48544D4C3E0D0A0D0A00485448
:1009F00054502F312E30203230300D0A436F6E7438
:100A0000656E742D547970653A20746578742F681A
:100A1000746D6C0D0A4B6565702D416C6976653A95
:100A200020636C6F73650D0A0D0A3C48544D4C3EB3
:100A30000D0A3C484541443E0D0A3C5449544C453E
:100A40003E52657365743C2F5449544C453E0D0A23
:100A50003C2F484541443E0D0A3C424F44593E0D0F
:100A60000A003C2F424F44593E0D0A3C2F48544D3A
:100A70004C3E0D0A0D0A00447520626973742064AF
:100A800065722025642E2042657375636865722047
:100A900061756620536F636B65742025642E0D0AA3
:100AA00000696E20256C64205061636B657473204F
:100AB0003B200045746865726E65743A20256C644D
:100AC00020427974657320002C20557074696D651F
:100AD0003A20256C642073656B203B20005A6569C1
:100AE000743A20253032643A253032643A25303267
:100AF000642E2530326400485454502F312E30205B
:100B00003230300D0A436F6E74656E742D547970F7
:100B1000653A20746578742F68746D6C0D0A4B65A6
:100B200065702D416C6976653A20636C6F73650D55
:100B30000A0D0A3C48544D4C3E0D0A3C4845414480
:100B40003E0D0A3C6D65746120687474702D65718A
:100B50007569763D22726566726573682220636FDF
:100B60006E74656E743D223132303B20223E0D0A98
:100B70003C5449544C453E57696E6B6577696E6BC2
:100B8000653C2F5449544C453E0D0A3C2F48454185
:100B9000443E0D0A3C424F4459206267636F6C6FBC
:100BA000723D2223363636364646222074657874E6
:100BB0003D2223464646464646223E003C2F424FB3
:100BC00044593E0D0A3C2F48544D4C3E0D0A0D0A27
:100BD000003C2F7072653E3C2F703E003C70726589
:100BE0003E3C703E00696E666F003C2F7072653E41
:100BF0003C2F703E003C7072653E3C703E0073744A
:100C00006F70003C2F7072653E3C2F703E003C7050
:100C100072653E3C703E007265706C6179006B6F6E
:100C20006D6D74206E6F63682100636F6E66696717
:100C3000003C2F7072653E3C2F703E0073747265ED
:100C4000616D75726C003C7072653E3C703E007365
:100C5000747265616D75726C003C666F726D2061B7
:100C60006374696F6E3D2273747265616D2E636784
:100C70006922206D6574686F643D22676574222067
:100C80006163636570742D636861727365743D227E
:100C900049534F2D383835392D31223E3C703E5363
:100CA000747265616D2D55524C3A3C696E70757465
:100CB000206E616D653D2273747265616D75726C35
:100CC000222073697A653D223530223E3C2F703EEA
:100CD0003C703E3C696E70757420747970653D227D
:100CE0007375626D6974222076616C75653D22733F
:100CF000747265616D207374617274656E223E3C1E
:100D00002F703E3C2F666F726D3E3C666F726D2099
:100D1000616374696F6E3D2273747265616D2E63D9
:100D200067693F73746F7022206D6574686F643DEE
:100D30002267657422206163636570742D63686146
:100D4000727365743D2249534F2D383835392D3132
:100D5000223E3C703E3C696E7075742074797065FB
:100D60003D227375626D697422206E616D653D224E
:100D700073746F70222076616C75653D2273746F99
:100D800070223E3C2F703E3C2F666F726D3E3C667B
:100D90006F726D20616374696F6E3D22737472654A
:100DA000616D2E6367693F7265706C617922206D99
:100DB0006574686F643D22676574222061636365B2
:100DC00070742D636861727365743D2249534F2DB1
:100DD000383835392D31223E3C703E3C696E707595
:100DE0007420747970653D227375626D6974222078
:100DF0006E616D653D227265706C6179222076614D
:100E00006C75653D227265706C6179223E3C2F7075
:100E10003E3C2F666F726D3E003C5449544C453E3B
:100E200053747265616D696E673C2F5449544C452B
:100E30003E0D0A3C2F484541443E0D0A3C424F447A
:100E4000593E0D0A003C6D65746120687474702D04
:100E500065717569763D22726566726573682220D8
:100E6000636F6E74656E743D2236303B20223E0DFA
:100E70000A00696E666F00485454502F312E30209E
:100E80003230300D0A436F6E74656E742D54797074
:100E9000653A20746578742F68746D6C0D0A4B6523
:100EA00065702D416C6976653A20636C6F73650DD2
:100EB0000A0D0A3C48544D4C3E0D0A3C48454144FD
:100EC0003E0D0A00696E6465782E68746D6C003C96
:100ED00048544D4C3E0D0A3C484541443E0D0A3CA9
:100EE0005449544C453E4F70656E4D43503C2F5411
:100EF00049544C453E0D0A3C2F484541443E0D0A9D
:100F00003C6672616D6573657420726F77733D2204
:100F100036302C33352C2A2C343022207363726FF8
:100F20006C6C696E673D226E6F22206672616D6522
:100F3000626F726465723D22322220626F72646554
:100F4000723D223222206672616D65737061636941
:100F50006E673D22322220626F72646572636F6C2D
:100F60006F723D2223303030303030223E0D0A2067
:100F70003C6672616D65207372633D2268656164D1
:100F80006C696E652E68746D6C22206E616D653DB6
:100F9000224E617669676174696F6E3122207363D6
:100FA000726F6C6C696E673D226E6F223E0D0A2077
:100FB0003C6672616D65207372633D226D61696E7E
:100FC0006D656E752E68746D6C22206E616D653D69
:100FD000224E617669676174696F6E322220736395
:100FE000726F6C6C696E673D226E6F223E0D0A2037
:100FF0003C6672616D65207372633D227374726525
:10100000616D2E63676922206E616D653D226D61A1
:10101000696E22207363726F6C6C696E673D226E1D
:101020006F223E0D0A203C6672616D65207372630B
:101030003D2273746174732E63676922206E616D43
:10104000653D2275706461746522207363726F6CF4
:101050006C696E673D226E6F223E0D0A203C6E6FFA
:101060006672616D65733E0D0A20203C626F647983
:101070003E0D0A2020203C703E3C6120687265666F
:101080003D2276657277656973652E68746D223EC0
:101090004E617669676174696F6E3C2F613E203CDA
:1010A0006120687265663D2273746172747365694C
:1010B00074652E68746D223E446174656E3C2F61C8
:1010C0003E3C2F703E0D0A20203C2F626F64793E1B
:1010D0000D0A203C2F6E6F6672616D65733E0D0ABE
:1010E0003C2F6672616D657365743E0D0A3C2F4836
:1010F000544D4C3E0D0A0D0A00686561646C696EC2
:10110000652E68746D6C003C48544D4C3E0D0A20B1
:101110003C484541443E0D0A20203C5449544C452E
:101120003E4F70656E4D43503C2F5449544C453EE4
:101130000D0A203C2F484541443E0D0A203C424FB9
:101140004459206267636F6C6F723D2223363636D6
:101150003646462220746578743D2223464646462C
:101160004646223E0D0A20203C68313E4F70656E97
:101170004D43503C2F68313E0D0A203C2F424F44D6
:10118000593E0D0A3C2F48544D4C3E0D0A0D0A00A5
:1011900073747265616D2E68746D6C003C48544DBB
:1011A0004C3E0D0A203C484541443E0D0A20203C5F
:1011B0005449544C453E4F70656E4D43503C2F543E
:1011C00049544C453E0D0A20203C7374796C6520CF
:1011D000747970653D22746578742F637373223E51
:1011E0000D0A202020613A6C696E6B207B207465AB
:1011F00078742D6465636F726174696F6E3A6E6F97
:101200006E653B20666F6E742D7765696768743A0A
:10121000626F6C643B20636F6C6F723A2346464684
:101220004646463B207D0D0A202020613A766973B0
:1012300069746564207B20746578742D6465636FC0
:10124000726174696F6E3A6E6F6E653B20666F6E89
:10125000742D7765696768743A626F6C643B2063CC
:101260006F6C6F723A234646464646463B207D0DDC
:101270000A202020613A686F766572207B207465B1
:1012800078742D6465636F726174696F6E3A6E6F06
:101290006E653B20666F6E742D7765696768743A7A
:1012A000626F6C643B206261636B67726F756E6422
:1012B0002D636F6C6F723A234444444444443B2092
:1012C0007D0D0A202020613A616374697665207B78
:1012D00020746578742D6465636F726174696F6ED4
:1012E0003A6E6F6E653B20666F6E742D7765696729
:1012F00068743A626F6C643B206261636B67726F03
:10130000756E642D636F6C6F723A2346464646468F
:10131000463B207D0D0A202020613A666F6375737D
:10132000207B20746578742D6465636F72617469C5
:101330006F6E3A6E6F6E653B20666F6E742D7765CB
:10134000696768743A626F6C643B206261636B67C3
:10135000726F756E642D636F6C6F723A23444444F0
:101360004444443B207D0D0A20203C2F7374796C4B
:10137000653E0D0A203C2F484541443E0D0A203C65
:10138000424F4459206267636F6C6F723D2223386D
:1013900038383846462220746578743D2223464604
:1013A00046464646223E0D0A20203C612068726572
:1013B000663D226D61696E6D656E752E68746D6C2B
:1013C000223E7A75727565636B3C2F613E202F203B
:1013D0003C6120687265663D2273747265616D2E92
:1013E00063676922207461726765743D226D61696B
:1013F0006E223E53747265616D3C2F613E202F203A
:101400003C6120687265663D2273747265616D2E61
:101410006367693F696E666F2220746172676574E5
:101420003D226D61696E223E496E666F733C2F618D
:101430003E202F203C6120687265663D22737472E5
:1014400065616D2E6367693F636F6E666967222011
:101450007461726765743D226D61696E223E4B6FE7
:101460006E66696775726174696F6E3C2F613E0DBF
:101470000A203C2F424F44593E0D0A203C2F48542D
:101480004D4C3E0D0A0D0A006D61696E6D656E75FD
:101490002E68746D6C003C48544D4C3E0D0A203C47
:1014A000484541443E0D0A20203C5449544C453E99
:1014B0004F70656E4D43503C2F5449544C453E0D82
:1014C0000A20203C7374796C6520747970653D2224
:1014D000746578742F637373223E0D0A2020206197
:1014E0003A6C696E6B207B20746578742D6465633B
:1014F0006F726174696F6E3A6E6F6E653B20666FD6
:101500006E742D7765696768743A626F6C643B200E
:10151000636F6C6F723A234646464646463B207DD3
:101520000D0A202020613A76697369746564207B16
:1015300020746578742D6465636F726174696F6E71
:101540003A6E6F6E653B20666F6E742D77656967C6
:1015500068743A626F6C643B20636F6C6F723A23FD
:101560004646464646463B207D0D0A202020613AED
:10157000686F766572207B20746578742D6465636E
:101580006F726174696F6E3A6E6F6E653B20666F45
:101590006E742D7765696768743A626F6C643B207E
:1015A0006261636B67726F756E642D636F6C6F72CF
:1015B0003A234444444444443B207D0D0A202020E7
:1015C000613A616374697665207B20746578742D57
:1015D0006465636F726174696F6E3A6E6F6E653BBE
:1015E00020666F6E742D7765696768743A626F6CF8
:1015F000643B206261636B67726F756E642D636F0D
:101600006C6F723A234646464646463B207D0D0A9D
:10161000202020613A666F637573207B20746578A3
:10162000742D6465636F726174696F6E3A6E6F6E6C
:10163000653B20666F6E742D7765696768743A62E2
:101640006F6C643B206261636B67726F756E642DB3
:10165000636F6C6F723A234444444444443B207D9E
:101660000D0A20203C2F7374796C653E0D0A203CD6
:101670002F484541443E0D0A203C424F44592062C8
:1016800067636F6C6F723D222338383838464622C4
:1016900020746578743D2223464646464646223EDF
:1016A0000D0A20203C6120687265663D22696E66E5
:1016B0006F2E68746D6C227461726765743D226D63
:1016C00061696E223E496E666F726D6174696F6EFC
:1016D000656E3C2F613E202F203C6120687265665C
:1016E0003D2273747265616D2E68746D6C223E5379
:1016F000747265616D3C2F613E202F203C61206833
:101700007265663D226E6574776F726B2E68746DBC
:101710006C223E4E65747A7765726B3C2F613E2079
:101720002F203C6120687265663D22737973746571
:101730006D2E68746D6C223E53797374656D3C2F09
:10174000613E0D0A203C2F424F44593E0D0A203C79
:101750002F48544D4C3E0D0A0D0A006E6574776F8C
:10176000726B2E68746D6C003C48544D4C3E0D0AF3
:10177000203C484541443E0D0A20203C5449544CED
:10178000453E4F70656E4D43503C2F5449544C4577
:101790003E0D0A20203C7374796C65207479706565
:1017A0003D22746578742F637373223E0D0A2020E6
:1017B00020613A6C696E6B207B20746578742D64AF
:1017C00065636F726174696F6E3A6E6F6E653B2010
:1017D000666F6E742D7765696768743A626F6C64C2
:1017E0003B20636F6C6F723A234646464646463B43
:1017F000207D0D0A202020613A7669736974656442
:10180000207B20746578742D6465636F72617469E0
:101810006F6E3A6E6F6E653B20666F6E742D7765E6
:10182000696768743A626F6C643B20636F6C6F72B7
:101830003A234646464646463B207D0D0A20202058
:10184000613A686F766572207B20746578742D64C8
:1018500065636F726174696F6E3A6E6F6E653B207F
:10186000666F6E742D7765696768743A626F6C6431
:101870003B206261636B67726F756E642D636F6C82
:101880006F723A234444444444443B207D0D0A2073
:101890002020613A616374697665207B20746578E5
:1018A000742D6465636F726174696F6E3A6E6F6EEA
:1018B000653B20666F6E742D7765696768743A6260
:1018C0006F6C643B206261636B67726F756E642D31
:1018D000636F6C6F723A234646464646463B207D10
:1018E0000D0A202020613A666F637573207B207497
:1018F0006578742D6465636F726174696F6E3A6E9A
:101900006F6E653B20666F6E742D776569676874CE
:101910003A626F6C643B206261636B67726F756ED5
:10192000642D636F6C6F723A234444444444443BD7
:10193000207D0D0A20203C2F7374796C653E0D0AC2
:10194000203C2F484541443E0D0A203C424F44591B
:10195000206267636F6C6F723D22233838383846D7
:10196000462220746578743D222346464646464604
:10197000223E0D0A20203C6120687265663D226D82
:1019800061696E6D656E752E68746D6C223E7A7538
:10199000727565636B3C2F613E202F203C6120688F
:1019A0007265663D226E6574776F726B2E63676930
:1019B00022207461726765743D226D61696E223EFA
:1019C000496E666F733C2F613E202F203C6120687A
:1019D0007265663D226E6574776F726B2E63676900
:1019E0003F636F6E66696722207461726765743D3C
:1019F000226D61696E223E4B6F6E6669677572611A
:101A000074696F6E3C2F613E0D0A203C2F424F449B
:101A1000593E0D0A203C2F48544D4C3E0D0A0D0AEC
:101A20000073797374656D2E68746D6C003C485456
:101A30004D4C3E0D0A203C484541443E0D0A2020B5
:101A40003C5449544C453E4F70656E4D43503C2FBD
:101A50005449544C453E0D0A20203C7374796C6502
:101A600020747970653D22746578742F63737322D6
:101A70003E0D0A202020613A6C696E6B207B207439
:101A80006578742D6465636F726174696F6E3A6E08
:101A90006F6E653B20666F6E742D7765696768743D
:101AA0003A626F6C643B20636F6C6F723A234646F8
:101AB000464646463B207D0D0A202020613A766945
:101AC0007369746564207B20746578742D64656324
:101AD0006F726174696F6E3A6E6F6E653B20666FF0
:101AE0006E742D7765696768743A626F6C643B2029
:101AF000636F6C6F723A234646464646463B207DEE
:101B00000D0A202020613A686F766572207B207470
:101B10006578742D6465636F726174696F6E3A6E77
:101B20006F6E653B20666F6E742D776569676874AC
:101B30003A626F6C643B206261636B67726F756EB3
:101B4000642D636F6C6F723A234444444444443BB5
:101B5000207D0D0A202020613A616374697665203A
:101B60007B20746578742D6465636F726174696F2E
:101B70006E3A6E6F6E653B20666F6E742D77656989
:101B80006768743A626F6C643B206261636B677272
:101B90006F756E642D636F6C6F723A2346464646CE
:101BA00046463B207D0D0A202020613A666F637512
:101BB00073207B20746578742D6465636F72617423
:101BC000696F6E3A6E6F6E653B20666F6E742D772F
:101BD00065696768743A626F6C643B206261636B2D
:101BE00067726F756E642D636F6C6F723A23444435
:101BF000444444443B207D0D0A20203C2F737479DB
:101C00006C653E0D0A203C2F484541443E0D0A209C
:101C10003C424F4459206267636F6C6F723D2223D0
:101C20003838383846462220746578743D22234679
:101C30004646464646223E0D0A20203C61206872F8
:101C400065663D226D61696E6D656E752E68746D99
:101C50006C223E7A75727565636B3C2F613E202F56
:101C6000203C6120687265663D2272657365742E42
:101C700063676922207461726765743D226D6169D2
:101C80006E223E52657365743C2F613E0D0A203C06
:101C90002F424F44593E0D0A203C2F48544D4C3E94
:101CA0000D0A0D0A00485454502F312E3020323086
:101CB000300D0A436F6E74656E742D547970653AF9
:101CC00020746578742F68746D6C0D0A4B656570AF
:101CD0002D416C6976653A20636C6F73650D0A0D52
:101CE0000A00485454502F312E30203230300D0A23
:101CF000436F6E74656E742D547970653A206A7006
:101D000065670D0A436F6E74656E742D4C656E6762
:101D100068743A2025640D0A4B6565702D416C6925
:101D200076653A20636C6F73650D0A0D0A0048549E
:101D300054502F312E30203230300D0A436F6E74E4
:101D4000656E742D547970653A20706E670D0A4384
:101D50006F6E74656E742D4C656E6768743A2025DD
:101D6000640D0A4B6565702D416C6976653A206398
:101D70006C6F73650D0A0D0A005544502D4563685C
:101D80006F2053657276696365206765737461724D
:101D90007465742061756620506F72742025642EFE
:101DA0000D0A00537472696E673A2025730D0A009C
:101DB0000D0A002563000D25635B324B002D2D2D90
:101DC0002D2D2D2D2D2D2D0D0A4865616465722058
:101DD000456E640D0A002563000D0A0D0A476574FF
:101DE00020486561646572696E666F726D617469C1
:101DF0006F6E0D0A2D2D2D2D2D2D2D2D2D2D2D2DD3
:101E00002D2D2D2D2D2D2D2D2D0D0A004649464F02
:101E100020666C75736865642E0D0A00436F6E6EE4
:101E2000656374696F6E20636C6F7365642E0D0A51
:101E30000052657175657374636F64653A2025643B
:101E4000202D2053747265616D206F6B61792C2099
:101E50005473756E616D692063616E20686967688F
:101E60006A61636B207468656D20746F74616C794E
:101E70000D0A0053747265616D206661696C65645A
:101E80000D0A0052657175657374636F64653A205D
:101E9000256420556E6B6E6F773A005265717565DB
:101EA0007374636F64653A20256420496E746572AB
:101EB0006E616C20536572766572204572726F7226
:101EC0003A0052657175657374636F64653A2025D5
:101ED00064204D6574686F64204E6F7420416C6C93
:101EE0006F7765643A0052657175657374636F64EA
:101EF000653A202564204E6F7420466F756E643AF3
:101F00000052657175657374636F64653A2025646A
:101F100020466F7262696464656E3A00526571753D
:101F2000657374636F64653A20256420556E61752E
:101F300074686F72697A65643A0052657175657389
:101F400074636F64653A20256420426164205265A1
:101F500071756573743A0054696D656F75743A00F4
:101F60004D503320627566666572696E6720282061
:101F70004649464F203D2025642077697468202516
:101F800064427974657320290D0A00526571756584
:101F90007374206F6E205443502D536F636B6574C0
:101FA0002025640D0A00474554202F2573204854EE
:101FB00054502F312E310D0A486F73743A20257317
:101FC0000D0A557365722D4167656E743A206D7008
:101FD000332D73747265616D696E67636C69656ECC
:101FE000742076302E316120286363632D62657220
:101FF0006C696E290D0A4963792D4D6574614461E0
:1020000074613A2025640D0A4B6565702D416C6939
:1020100076653A200D0A436F6E6E656374696F6E64
:102020003A2054452C204B6565702D416C697665CE
:102030000D0A54453A20747261696C6572730D0A19
:102040000D0A00206661696C20746F20636F6E6EEC
:10205000656374203B2D280D0A0020636F6E6E654A
:1020600063746564203B2D440D0A00436F6E6E65FA
:10207000637420746F20257300486967686A616320
:102080006B2063757272656E742073747265616D16
:1020900020616E64206B696C6C207468656D206FC4
:1020A0006E20536F636B65742025640D0A000D2547
:1020B000356428544350202534642942797465736B
:1020C000206F6E204649464F2C2062616E6477690E
:1020D0006474683A25336C646B6269742F732825C5
:1020E00032646B622F7329005473756D616E6920C1
:1020F00076302E312E33204D50332D73747265613E
:102100006D696E67656E67696E652067657374617A
:1021100072746574200D0A2449643A206D70332D61
:1021200073747265616D696E672E63203637203275
:102130003030382D30392D30372031313A34333A80
:1021400033325A2073686172616E20242E0D0A00AA
:1021500042495452415445203D202564206B626918
:10216000742F730D0A004D45544155524C203D20AB
:1021700025730D0A0047454E5245203D2025730D1D
:102180000A004E414D45203D2025730D0A005A6539
:102190006974203D202564207365630D0A00507525
:1021A00066666572203D202564204279746525733A
:1021B000005443502D507566666572203D2025649D
:1021C000204279746525730042616E6462726569AC
:1021D00074656E6175736E75747A756E67203D20D7
:1021E000256C64206B6269742F732028253264206B
:1021F0006B627974652F73290D0A0042495452416C
:102200005445203D202564206B6269742F7325732B
:102210000025730D0A003C6120687265663D222529
:1022200073223E25733C2F613E25730055524C208E
:102230003D2000544954454C203D20257325730012
:1022400047454E5245203D2025732573004E414D94
:1022500045203D202573257300202046494C45200C
:102260003D2025730D0A002020504F5254203D2060
:1022700025640D0A0020204950203D202530386C6F
:10228000780D0A00202055524C203D2025730D0A60
:1022900000202050524F544F203D2025730D0A003E
:1022A000202055524C203D2025733A2F2F25733A7C
:1022B00025642F25730D0A0073747265616D696E54
:1022C00067696E666F0D0A0048545450004D5033D4
:1022D0002D53747265616D696E67636C69656E74A8
:1022E0002076302E32610D0A0D0A706C617920550E
:1022F000524C0909737069656C742065696E656E6E
:102300002053747265616D20766F6E2055524C209B
:1023100061620D0A7265706C6179090909737069EF
:10232000656C742064656E20616E676568616C74AD
:10233000656E2053747265616D2061620D0A73745D
:102340006F7009090973746F7070742064656E2072
:1023500053747265616D0D0A696E666F09090967CC
:1023600069627420496E666F73207A756D205374AC
:102370007265616D206175730D0A766F6C206E0950
:1023800009097374656C6C7420646965204C61750F
:102390006673746165726B6520617566206E206579
:1023A000696E2C6C65697365202D3E20302E2E32AF
:1023B00035352D3E206C6175740D0A6261737309A9
:1023C0000909736368616C7465742064656E2042EA
:1023D000617373656E68616E6365722065696E0D09
:1023E0000A766572626F7365090909746F676765BC
:1023F0006C742064617320566572626F73656C65DE
:1024000076656C20667565722041757367616265DB
:102410006E20617566206465722052533233320D2E
:102420000A6D657461696E666F0909736368616C32
:1024300074657420646173204D6574617374726592
:10244000616D696E672065696E20667565722049E9
:102450006E666F73200D0A09090909776165687254
:10246000656E64206465732053747265616D696E76
:102470006773286578706572696D656E74656C291F
:102480000D0A3F206F6465722068656C7009094809
:10249000696C66652C2077617320736F6E7374208E
:1024A0003A2D290D0A0D0A00416B7475656C6C6537
:1024B00072205765727465206C696E6B7320256499
:1024C0002C207265636874732025642E0D0A0056F3
:1024D0006F6C20736F6C6C7465207A7769736368B6
:1024E000656E2030202E2E20323535206C696567D0
:1024F000656E210D0A00766F6C203D2025640D0A63
:102500000073657420766572626F73656C657665BD
:102510006C20746F2025640D0A00736574206D654E
:102520007461696E666F20746F2025640D0A006205
:10253000617373200D0A006265656E6465205374D3
:102540007265616D696E670D0A0072657374617200
:1025500074652053747265616D696E670D0A00734E
:1025600074617274652053747265616D696E670D74
:102570000A000D0A0D0A0D0A6D696B726F50414415
:102580003A20446562756720706F727420646973C5
:1025900061626C6564210D0A000C0A0A8D25731EA8
:1025A0008C0A0A0047455420257320485454502F64
:1025B000312E300D0A486F73743A206274782E728F
:1025C000756E6E696E677365727665722E636F6D78
:1025D0000D0A0D0A00140A0D5448414E4B20594F64
:1025E0005521007465726D696E616C2066756E634D
:1025F00074696F6E203D3D3E110054797065207303
:102600006F6D657468696E67202831352063686175
:1026100072732920746F207665726966790A0D00DD
:102620000C5445524D494E414C20544553543A0A9E
:102630000D0014BE88E10FB6F894809360001092EC
:1026400060000FBE11241FBECFEFD1E2DEBFCDBFB1
:1026500080917400806880937400579A5F9A0E94FA
:1026600022400E940D40E0E0F2E085E5819392E295
:10267000E030F907D9F7E0E0F2E08081853519F024
:102680000E940340FFCF319682E2E030F807A9F7BD
:10269000A0E0B2E285E58D939FEFAF3FB907D9F790
:1026A0008081853519F00E941840FFCF31968FEF59
:1026B000EF3FF807A9F717E2A0E0B2E2ECE8F7ED88
:1026C00000E00BBF02C007900D92A833B107D9F705
:1026D00015EFA8E3B7E201C01D92A432B107E1F7FC
:1026E000E4E2F5EF8AEA90E08193E030F907E0F365
:1026F0000C947C130C940000A8E0B0E0E2E8F3E155
:102700000C946D6B78940E94E03A0E94093B0E9401
:10271000273B0E943C198BE190E09F938F938EE8BA
:1027200093E09F938F930E94326782E193E09F939F
:102730008F930E9432678DEF92E09F938F930E9458
:1027400032670E94BC3F84EE92E09F938F930E9479
:1027500032670E943C198EEC92E09F938F930E9407
:10276000326762E080E195E10E940B1986EB92E00E
:102770009F938F930E9432670E9448472DB73EB7C0
:10278000225F3F4F0FB6F8943EBF0FBE2DBF882388
:1027900049F583E00E94C1468C0183E00E94C14656
:1027A0009C01C801880F991F68EE73E00E94FB6AC4
:1027B0009F938F93C901880F991F68EE73E00E9461
:1027C000FB6A7F936F938CE992E09F938F930E94B3
:1027D00032678DB79EB706960FB6F8949EBF0FBEB0
:1027E0008DBF08C085E992E09F938F930E94326766
:1027F0000F900F900E94001D87EC90E09F938F93A5
:102800008CE190E09F938F9385E590E09F938F9369
:102810008FE690E09F938F9383E090E09F938F9358
:102820001F921F9282E592E09F938F930E943267DE
:102830000E94431F89E392E09F938F930E94326727
:102840000E94652180E292E09F938F930E943267FD
:102850000E946B3087E092E09F938F930E943267D3
:1028600082EE91E09F938F930E9432670E945143C2
:102870002DB73EB72A5E3F4F0FB6F8943EBF0FBE4E
:102880002DBF892B19F48DEC91E002C080EB91E013
:102890009F938F930E9432670F900F902091062292
:1028A000309107224091082250910922852F9927C3
:1028B0009F938F93842F99279F938F93832F99278B
:1028C0009F938F93822F99279F938F9384E991E011
:1028D0009F938F930E94326720910A2230910B229E
:1028E00040910C2250910D22852F99279F938F9311
:1028F000842F99279F938F93832F99279F938F934B
:10290000822F99279F938F9388E791E09F938F93CE
:102910000E94326720910E2230910F2240911022A6
:1029200050911122852F99279F938F93842F992758
:102930009F938F93832F99279F938F93822F99270C
:102940009F938F938CE591E09F938F930E943267C2
:10295000209112223091132240911422509115227D
:10296000852F99279F938F93842F99279F938F93D8
:10297000832F99279F938F93822F99279F938F93CC
:1029800080E491E09F938F930E9432678DB79EB74A
:1029900088960FB6F8949EBF0FBE8DBF40E050E002
:1029A00062E875E881E09AE00E94BA43892B21F53C
:1029B000CE0101960E945F1889812A814B816C812A
:1029C00099279F938F9333273F932F9355275F9397
:1029D0004F9377277F936F9380E091E09F938F933E
:1029E0000E9432672DB73EB7265F3F4F0FB6F8946F
:1029F0003EBF0FBE2DBF08C08CEC90E09F938F931D
:102A00000E9432670F900F9082E00E947A3F0E94EE
:102A1000185280911CF590911DF50E94EF66FFCF32
:102A200080E00E94A63F0895382F883050F42DB3DF
:102A300081E090E002C0880F991F3A95E2F7282BB9
:102A40002DBB0895382FDA01883018F08EEF90E012
:102A50000895643018F08FEF90E00895482F5527BF
:102A600077278430D8F420916900440F551F83E004
:102A700090E0042E02C0880F991F0A94E2F7809517
:102A80002823209369008091690002C0660F771F98
:102A90004A95E2F7862B809369001AC020916A005C
:102AA000440F551F83E090E0042E02C0880F991F49
:102AB0000A94E2F78095282320936A0080916A00A7
:102AC00002C0660F771F4A95E2F7862B80936A0053
:102AD000E32FFF27EE0FFF1FEA5FF54CB183A083C2
:102AE000832F0E94141580E090E00895382F8830DD
:102AF00058F42DB381E090E002C0880F991F3A95F9
:102B0000E2F7809528232DBB08951F920F920FB6F0
:102B10000F9211242F933F934F935F936F937F9363
:102B20008F939F93AF93BF93EF93FF93E091063AF8
:102B3000F091073A1995FF91EF91BF91AF919F9155
:102B40008F917F916F915F914F913F912F910F9056
:102B50000FBE0F901F9018951F920F920FB60F92F5
:102B600011242F933F934F935F936F937F938F9392
:102B70009F93AF93BF93EF93FF93E091083AF09147
:102B8000093A1995FF91EF91BF91AF919F918F9164
:102B90007F916F915F914F913F912F910F900FBE59
:102BA0000F901F9018951F920F920FB60F9211243D
:102BB0002F933F934F935F936F937F938F939F9345
:102BC000AF93BF93EF93FF93E0910A3AF0910B3AE2
:102BD0001995FF91EF91BF91AF919F918F917F9147
:102BE0006F915F914F913F912F910F900FBE0F907A
:102BF0001F9018951F920F920FB60F9211242F93CA
:102C00003F934F935F936F937F938F939F93AF9374
:102C1000BF93EF93FF93E0910C3AF0910D3A199521
:102C2000FF91EF91BF91AF919F918F917F916F91A4
:102C30005F914F913F912F910F900FBE0F901F907A
:102C400018951F920F920FB60F9211242F933F9356
:102C50004F935F936F937F938F939F93AF93BF93A4
:102C6000EF93FF93E0910E3AF0910F3A1995FF918F
:102C7000EF91BF91AF919F918F917F916F915F91F4
:102C80004F913F912F910F900FBE0F901F9018956D
:102C90001F920F920FB60F9211242F933F934F93D1
:102CA0005F936F937F938F939F93AF93BF93EF93B4
:102CB000FF93E091103AF091113A1995FF91EF913D
:102CC000BF91AF919F918F917F916F915F914F9144
:102CD0003F912F910F900FBE0F901F9018951F924C
:102CE0000F920FB60F9211242F933F934F935F9340
:102CF0006F937F938F939F93AF93BF93EF93FF93C4
:102D0000E091123AF091133A1995FF91EF91BF912A
:102D1000AF919F918F917F916F915F914F913F9173
:102D20002F910F900FBE0F901F9018951F920F922A
:102D30000FB60F9211242F933F934F935F936F938E
:102D40007F938F939F93AF93BF93EF93FF93E09104
:102D5000143AF091153A1995FF91EF91BF91AF9107
:102D60009F918F917F916F915F914F913F912F91A3
:102D70000F900FBE0F901F901895E4ECF0E01182B9
:102D800010826A9A80EC8093C20088E18093C1002F
:102D9000118210820895982F8091C00085FFFCCF8A
:102DA0009093C6008091C00087FFFCCF8091C60041
:102DB00099270895FC0181918093C60021E030E0BD
:102DC0000AC090818091C00085FFFCCF9093C6001F
:102DD0002F5F3F4F31962617370798F38091C00039
:102DE00087FFFCCF089520E030E0FC018091C00017
:102DF00085FFFCCF1092C6008091C00087FFFCCFFA
:102E00008091C60081932F5F3F4F6217730770F761
:102E100008951092033A1092023A1092053A1092D5
:102E2000043A94B5926094BD282F3327322F22277D
:102E3000330F330F442737FD4095542F60E074E281
:102E400084EF90E00E94446B27BD85B5856085BD09
:102E5000EEE6F0E08081826080830895EEE6F0E0A7
:102E600080818D7F80830895EEE6F0E0808182602E
:102E7000808308951F920F920FB60F9211242F9303
:102E80003F934F935F936F937F938F939F93AF93F2
:102E9000BF93CF93DF93EF93FF93C2E0DAE3E88130
:102EA000F981309709F0199522968AE3C630D80740
:102EB000B1F7FF91EF91DF91CF91BF91AF919F91CA
:102EC0008F917F916F915F914F913F912F910F90D3
:102ED0000FBE0F901F9018954091023A5091033AFF
:102EE00048175907E1F02091043A3091053A281724
:102EF0003907A9F0452B19F4E0E0F0E007C0232BD7
:102F000019F080E090E00895E1E0F0E0EE0FFF1F9F
:102F1000EE5FF54C9183808381E090E0089581E03D
:102F200090E008959C018091023A9091033A8217B3
:102F3000930719F4E0E0F0E00CC08091043A90911E
:102F4000053A8217930719F080E090E00895E1E0D8
:102F5000F0E0EE0FFF1FEE5FF54C1182108281E072
:102F600090E00895FF920F931F93CF93DF9380918A
:102F7000FC398F5F8093FC398091FC39843619F0DD
:102F800041E0F42E47C01092FC398091FB398F5FED
:102F90008093FB398091FD399091FE39A091FF39E2
:102FA000B091003A0196A11DB11D8093FD39909317
:102FB000FE39A093FF39B093003A8091FB398C33EE
:102FC00019F032E0F32E26C01092FB398091FA39C5
:102FD0008F5F8093FA398091FA398C3319F023E0AE
:102FE000F22E18C01092FA398091013A8F5F8093C7
:102FF000013A8091013A883149F094E0F92E0AC0F3
:1030000013820190F081E02D199527C01092013AAA
:1030100085E0F82E00E010E0C6E0DAE38A81F816D9
:1030200048F081E08F1510F48B8304C01B82E88187
:10303000F98119950F5F1F4F24960031110571F723
:10304000A9E0BAE3FD0133978C9114968130C1F267
:1030500034968AE3A934B807B9F720E030E0E6E413
:10306000FAE38481F81698F080819181A281B3817E
:103070000097A105B10559F080819181A281B381AA
:103080000197A109B10980839183A283B3832F5F44
:103090003F4F35962032310521F7E5E0CDB7DEB759
:1030A0000C94886B9927FC01EE0FFF1FEE0FFF1F9A
:1030B000E80FF91FEA5BF54C86E0848308950F93CF
:1030C0001F938C010E94CA198091FC39F8018083FA
:1030D0008091FB3981838091FA3982838091013A12
:1030E00083838091FD399091FE39A091FF39B09191
:1030F000003A84839583A683B7830E94D0191F91D9
:103100000F910895EF92FF920F931F93082F0E9443
:10311000CA191127F801EE0FFF1FEE0FFF1FE00F76
:10312000F11FEA5BF54CE080F180028113810E947F
:10313000D019C7011F910F91FF90EF900895BF9292
:10314000CF92DF92EF92FF920F931F93C82E7B01D5
:10315000B42E0E94CA19DD2400271127F601EE0FB4
:10316000FF1FEE0FFF1FEC0DFD1DEA5BF54CE0822B
:10317000F18202831383B4820E94D0191F910F91B0
:10318000FF90EF90DF90CF90BF900895CF93DF93A3
:103190000E94CA1980E090E0E6E4FAE3EC01848141
:1031A000863039F410821182128213820E94D01963
:1031B0000AC0CE01019635968032910579F70E94BA
:1031C000D019C0E0D0E0CE01DF91CF910895CF9328
:1031D000DF93EC010E94CA1920E030E0E6E0FAE358
:1031E000808191818C179D0749F486E0828311824A
:1031F00010820E94D01981E090E00AC02F5F3F4FFB
:1032000034962031310561F70E94D01980E090E0BA
:10321000DF91CF9108951F93CF93DF93EC01162F89
:103220000E94CA19E6E0FAE38081918134968C17F6
:103230009D0779F08AE3E634F807B1F720E030E043
:10324000E6E0FAE380819181892B41F4D183C08348
:1032500012830E94D01981E090E00AC02F5F3F4F97
:1032600034962031310571F70E94D01980E090E04A
:10327000DF91CF911F91089586E0E6E0FAE3118295
:103280001082828334969AE3E634F907C1F786E028
:10329000E6E4FAE310821182128213828483359667
:1032A0009AE3E63EF907B1F71092FC391092FB3928
:1032B0001092FA391092013A1092FD391092FE39AB
:1032C0001092FF391092003A60E070E084E690E0DE
:1032D0000E94951982EB97E10E94081A0895FF92C7
:1032E0000F931F938C010E94C618F82EC8016AE044
:1032F00070E00E94FB6A41E08F2D0E949F188F2D85
:103300000E948218892BD9F78F2D9927FC01EE0F87
:10331000FF1FEE0FFF1FE80FF91FEA5BF54C86E079
:1033200084831F910F91FF900895EF92FF920F9366
:103330001F937B011092E73A1092E63A1092E93A15
:103340001092E83A01E810E0F8012081286020831B
:103350009C0183E0220F331F8A95E1F7442755270C
:1033600060E074E284EF90E00E94446B2E193F0904
:103370003093890020938800F801808182608083E7
:10338000EFE6F0E08081826080831F910F91FF90D3
:10339000EF900895EFE6F0E080818D7F80830895BF
:1033A000EFE6F0E080818260808308951F920F92A3
:1033B0000FB60F9211242F933F934F935F936F9308
:1033C0007F938F939F93AF93BF93CF93DF93EF93AD
:1033D000FF93C6EEDAE3E881F981309709F0199599
:1033E00022968AE3CA3ED807B1F7FF91EF91DF91A9
:1033F000CF91BF91AF919F918F917F916F915F918D
:103400004F913F912F910F900FBE0F901F901895E5
:103410004091E63A5091E73A48175907E1F0209178
:10342000E83A3091E93A28173907A9F0452B19F401
:10343000E0E0F0E007C0232B19F080E090E0089571
:10344000E1E0F0E0EE0FFF1FEA51F54C918380833D
:1034500081E090E0089581E090E008959C018091E2
:10346000E63A9091E73A8217930719F4E0E0F0E02A
:103470000CC08091E83A9091E93A8217930719F0CD
:1034800080E090E00895E1E0F0E0EE0FFF1FEA51E8
:10349000F54C1182108281E090E008950F931F9304
:1034A000CF93DF93EC018B0173988AE703C0F80197
:1034B00081918F010E94CB162197FFEFCF3FDF074D
:1034C000B1F7739ADF91CF911F910F9108951F93D8
:1034D000142F73986F71862B0E94CB16812F0E9438
:1034E000CB16739A1F9108951F93CF93DF93182FD4
:1034F000C82FDD27C076D0708091ED3A9927C81784
:10350000D90791F043E06FE180EA0E94671A85E0F5
:10351000D595C7958A95E1F74C2F6FE180E80E9419
:10352000671A10761093ED3ADF91CF911F910895AD
:103530000F931F93082F162F0E94741A412F602F8C
:1035400080E40E94671A1F910F910895EF92FF92F5
:103550000F931F938C017B0160E082E00E94981A18
:1035600068E183E00E94981A602F86E00E94981A12
:103570000050184E612F77270050184187E00E94B5
:10358000981A40E060E08AE70E94671AB701C80114
:103590000E944E1A48E06FE180E80E94671A1F916E
:1035A0000F91FF90EF90089560E084EE0E94981ACA
:1035B00063E085EE0E94981A6FE682EE0E94981AE8
:1035C00065E583EE0E94981A6CE180EE0E94981ADD
:1035D00067EC81EE0E94981A08951F93162F739836
:1035E000962F9F71892B0E94CB1680E00E94CB16EC
:1035F00017FF03C080E00E94CB16739A99271F9192
:1036000008950F931F936091EA3A80E00E94981A00
:103610006091EA3A7091EB3A672F772781E00E9438
:10362000981A60E08AE30E94ED1A082F112760E0E3
:103630008AE30E94ED1A9927982F8827802B912BD7
:103640001F910F9108951F93182F0E94741A612FD4
:1036500080E00E94ED1A99271F9108950F931F9300
:103660008B01682F84ED0E94981A602F86ED0E94CE
:10367000981A012F1127602F87ED0E94981A8AEE61
:103680000E94231B80FDFBCF1F910F9108950E9484
:10369000BD166B9A4FEF60E08FEF0E94671A8DE1C5
:1036A0000E94231B80FFFBCF82E70E94231B809395
:1036B000EC3A1092EB3A1092EA3A60E088E00E940D
:1036C000981A60E089E00E94981A60E08CE00E94FD
:1036D000981A60E08DE00E94981A6EEF8AE00E94CE
:1036E000981A67E18BE00E94981A60E084E00E94DB
:1036F000981A68E185E00E94981A6DE080EC0E94BB
:10370000981A60E081EC0E94981A63E088EC0E94AD
:10371000981A42E362EC80E80E94671A62E186EC44
:103720000E94981A6CE087EC0E94981A62E184EC7F
:103730000E94981A6EEE8AEC0E94981A65E08BEC53
:103740000E94981A0E94D41A60E071E080E10E9401
:103750002E1B8FE10E94741A40EC6BE180E80E94FE
:10376000671A44E06FE180E80E94671A66E774E038
:1037700084E10E942E1B80ED97E00E946F1908954E
:103780000F931F93682F84ED0E94981A61E082EDD9
:103790000E94981A8AEE0E94231B80FDFBCF60E0F6
:1037A00082ED0E94981A88ED0E94231B082F112792
:1037B00089ED0E94231B9927982F8827802B912B16
:1037C0001F910F910895EF92FF920F931F938C0119
:1037D0007B0173988AE30E94CB16B801C7010E944F
:1037E000F316739A1F910F91FF90EF900895A0E048
:1037F000B0E0EDEFFBE10C94696BEC017B018CE137
:103800000E94231B86FD06C089E30E94231B882398
:1038100009F452C06091EA3A80E00E94981A6091DF
:10382000EA3A7091EB3A672F772781E00E94981A65
:1038300060E08AE30E94ED1A082F11271093EB3AFB
:103840000093EA3A60E08AE30E94ED1A9927982FE4
:103850008827082B192B1093EB3A0093EA3A60E083
:103860008AE30E94ED1AC82EDD2460E08AE30E94FC
:10387000ED1A9927982F8827C82AD92A60E08AE369
:103880000E94ED1A60E08AE30E94ED1ACC15DD0576
:10389000B0F46091EA3A8CE00E94981A6091EA3A9A
:1038A0007091EB3A672F77278DE00E94981A40E4D9
:1038B0006EE180E80E94671ACC24DD2445C0B70180
:1038C000C6010E94E31B89E00E94231B082F1127D9
:1038D000102F002788E00E94231BE82E8BE00E9417
:1038E000231B9927D82FCC278AE00E94231B9927D6
:1038F000C82BD92B6091EA3A7091EB3ACB01019732
:10390000FF240E291F298017910718F0C817D9071F
:1039100038F46C2F8CE00E94981A6D2F77270CC01A
:1039200061508CE00E94981A6091EA3A7091EB3AEB
:1039300061507040672F77278DE00E94981A40E40D
:103940006EE180E80E94671AC601E8E0CDB7DEB7F5
:103950000C94856BCF93DF93FB0128E030E0358733
:103960002487EC01A0E0B2E28D9186838991819356
:1039700082E2A630B807C1F7DF91CF91089584E0C5
:103980000E941415089584E00E9476150895EF9220
:10399000FF920F931F932091EE3A3091EF3A4091AE
:1039A000F03A5091F13A2F5F3F4F4F4F5F4F2093C6
:1039B000EE3A3093EF3A4093F03A5093F13A7C016B
:1039C000002711272091F23A3091F33A4091F43ACE
:1039D0005091F53A2E0D3F1D401F511F2093F23A92
:1039E0003093F33A4093F43A5093F53A0E94A61A72
:1039F0001F910F91FF90EF9008950E94F71B08957B
:103A0000A0E0B0E0E6E0FDE10C946B6BEDB6FEB635
:103A10000E94471B8DB79EB78E5E95400FB6F894F7
:103A20009EBF0FBE8DBF0DB71EB70F5F1F4FB801F2
:103A30008EEE95E00E94FD1C892BC9F74EE25DE1F8
:103A400060E084E00E9422150E94BF1C0FB6F8942B
:103A5000FEBE0FBEEDBEE6E00C94876BA0E0B0E0CA
:103A6000E4E3FDE10C94696BEDB6FEB68DB79EB74D
:103A70008E5E95400FB6F8949EBF0FBE8DBF0DB7FA
:103A80001EB70F5F1F4F3CC08091EE3A9091EF3A06
:103A9000A091F03AB091F13A0196A11DB11D809329
:103AA000EE3A9093EF3AA093F03AB093F13A960140
:103AB000442755278091F23A9091F33AA091F43A35
:103AC000B091F53A820F931FA41FB51F8093F23A6D
:103AD0009093F33AA093F43AB093F53AF8018485C1
:103AE00095858830910541F08850964049F4B80199
:103AF000C6010E94DF1D04C0B801C6010E94FB1F61
:103B0000B8018EEE95E00E94FD1C6C01892B09F036
:103B1000BBCF0FB6F894FEBE0FBEEDBEE8E00C942E
:103B2000856BE0E0FBE38081882311F08150808386
:103B30003B968BE3EC32F807B1F708950F931F9390
:103B4000CF93DF93EC018901049718F080E090E0B7
:103B500031C08BE090E0C89F9001C99F300DD89F85
:103B6000300D1124F901EA50F54C80819181A28138
:103B7000B381FB0180839183A283B383D901A650D3
:103B8000B54CFA019A012A5F3F4F8D918193E2175C
:103B9000F307D9F78BE090E0C89FF001C99FF00DC3
:103BA000D89FF00D1124EA50F54C8285F8018083EE
:103BB00081E090E0DF91CF911F910F9108950F93D5
:103BC0001F93CF93DF938C01FB013E9686819781F3
:103BD00021E08030920729F08050924009F070C0B7
:103BE0004DC0208D318D428D538D80910622909154
:103BF0000722A0910822B0910922281739074A0705
:103C00005B0709F05DC080E092E097838683DF0167
:103C100090E0ED0188858A8B9F5F11969A30C9F7F5
:103C200080910022808780910122818780910222E9
:103C300082878091032283878091042284878091E8
:103C4000052285878091062290910722A091082263
:103C5000B091092286879787A08BB18BFB01A0E0EA
:103C6000B2E2868180838D918683319622E2A630EE
:103C7000B207B9F7C8010E94C71C22C0C6EFDAE339
:103C80006EE1288139814A815B8186859785A0898B
:103C9000B189281739074A075B0769F46A87808565
:103CA0008C8381858D8382858E8383858F838485B4
:103CB0008887858589872B968BE3C232D80709F7D9
:103CC000DF91CF911F910F910895A0E0B0E0EBE656
:103CD000FEE10C94656B7B018C016A018DB69EB68A
:103CE000E6EFFAE320E030E044E050E0828588230C
:103CF000B1F080819181A281B3818E159F05A007CB
:103D0000B10769F4DA01AA50B54CF60196012A5FB1
:103D10003F4F8D918193E217F307D9F79FC02F5F33
:103D20003F4F455F5F4F3B9624303105F9F620E069
:103D300030E0E0E0FBE3DF011A978081882339F46B
:103D4000ED92FD920D931C931397590107C02F5FBD
:103D50003F4F1B963B962430310579F78DB79EB7C0
:103D60008A970FB6F8949EBF0FBE8DBF4DB75EB752
:103D70004F5F5F4F20E031E0EDB7FEB7308B278714
:103D800088E090E0928B818B86E0838B84E0848B4B
:103D9000368B258B11A212A213A214A215A216A271
:103DA000E7A2F0A601A712A780910022878B80913D
:103DB0000122808F80910222818F80910322828F45
:103DC00080910422838F80910522848F8091062226
:103DD00090910722A0910822B0910922858F968F99
:103DE000A78FB0A3FA01A0E0B2E29FEF90838D917C
:103DF0008683319682E2A630B807C1F788E096E064
:103E0000FA0195878487BA018AE290E00E94C71C74
:103E10000E94C618182F41E06AE070E00E949F18C7
:103E20008BE090E0A89E9001A99E300DB89E300DC9
:103E30001124F901EA50F54C8285882391F0F901AB
:103E4000E650F54CD60196012A5F3F4F81918D9344
:103E5000A217B307D9F7812F0E94521880E090E093
:103E60000AC0812F0E948218892BD1F6812F0E94CF
:103E7000521881E090E00FB6F8949EBE0FBE8DBE42
:103E8000ECE00C94816B1092003B10920B3B109273
:103E9000163B1092213B62E081E99DE10E940B19E3
:103EA0000895A0E0B0E0E7E5FFE10C94636B6C01DE
:103EB000EC0109900020E9F72197C81BD90BEE24EB
:103EC000FF246624772460E070E080E090E029C061
:103ED0000894611C711C1BC08824962EA72EB82E36
:103EE00086010E0D1F1DC8010E948266AC01662767
:103EF00057FD6095762FF8019701DE0180818E32A3
:103F000039F32F5F3F4F31962A173B07B9F7842AC1
:103F1000952AA62AB72AC501B40179010894E11CA3
:103F2000F11CEC16FD0628F023E06216710431F056
:103F300008C024E06216710478F203C00E943720A2
:103F400004C060E070E080E090E0EEE0CDB7DEB766
:103F50000C947F6B9F92AF92BF92CF92DF92EF92C1
:103F6000FF920F931F935B016C01942EC90178019E
:103F7000025F1F4F25E4F7012687F801118244965E
:103F80000E946620F801938382838CEA9DE19583E9
:103F9000848380E4868317828087918613861286C5
:103FA0008091062290910722A0910822B0910922C7
:103FB00084879587A687B787A08AB18AC28AD38A61
:103FC000F701668577276F707070660F771F660F31
:103FD000771FC8010E946E200E946620F801938717
:103FE00082871F910F91FF90EF90DF90CF90BF904D
:103FF000AF909F900895CF93DF93EC01FB013E9625
:1040000081858630C9F0813161F1813069F520897F
:104010003189428953898091062290910722A0918B
:104020000822B0910922281739074A075B07E1F4F3
:10403000CE010E94B52018C0208931894289538958
:104040008091062290910722A0910822B091092226
:10405000281739074A075B0739F4CE010E94D52C8F
:1040600003C0CE010E949222DF91CF910895EF927A
:10407000FF920F931F93E92EFF2400271127562F3D
:10408000442733272227E22AF32A042B152B9B01EE
:10409000AC01207040705070542F432F322F2227D4
:1040A000607070709070672F782F892F9927262B5A
:1040B000372B482B592BE22AF32A042B152BC80146
:1040C000B7011F910F91FF90EF9008959C01892FE8
:1040D0009927322F2227822B932B0895EF92FF925C
:1040E0000F931F93FC01EE24FF24870112C08081EF
:1040F000218132969927982F8827820F911D8095CC
:104100009095AA27BB27E80EF91E0A1F1B1F6250B5
:1041100070406230710558F7672B61F080819927F4
:10412000982F882780959095AA27BB27E80EF91E1F
:104130000A1F1B1F980144275527D801C701A070EB
:10414000B070820F931FA41FB51F9D0144275527F0
:10415000A070B070820F931FA41FB51FA070B07025
:104160001F910F91FF90EF900895A0E0B0E0EBEB6E
:10417000F0E20C94696B6C017B01EB012E96FB0164
:104180008685682F77276F707070660F771F660FB0
:10419000771F8E01060F171FF80180818830D1F537
:1041A0008C859D85AE85BF85888B998BAA8BBB8BB3
:1041B0008091062290910722A0910822B0910922B5
:1041C0008C879D87AE87BF871B861A86CE010E948B
:1041D0006E200E9466209B878A87F80110821182D8
:1041E0008281883F18F083818F5F8383F801828109
:1041F000885F8283F701A0E0B2E2868180838D919F
:104200008683319682E2A630B807B9F7B701C601B6
:104210000E94C71CE8E0CDB7DEB70C94856BFC01AB
:10422000049718F08FEF9FEF089586E190E09F01CB
:10423000289FF001299FF00D389FF00D1124EE5DAD
:10424000F44C808199270895FC01049718F08FEFB2
:104250009FEF089586E190E09F01289FF001299F3C
:10426000F00D389FF00D1124EE5DF44C8189928998
:104270000895FC01049780F486E190E09F01289F57
:10428000F001299FF00D389FF00D1124EE5DF44CE4
:10429000128A118A80E1808308959C01049790F42A
:1042A00086E190E0289FF001299FF00D389FF00DE6
:1042B0001124EE5DF44C8081882321F0108280E08F
:1042C00090E008958FEF9FEF0895CF93DF93C0E0C4
:1042D000D0E0CE010E944D212196C430D105C9F70E
:1042E000DF91CF910895A0E0B0E0E9E7F1E20C940E
:1042F000676BBC018C01025F1F4FFC018685A82EF5
:10430000BB24FFE0AF22BB24AA0CBB1CAA0CBB1C25
:10431000A00EB11ECC24DD24C2E2DBE37E01F70156
:1043200027813085F5018081918128173907C9F4EB
:10433000F70125813681F50182819381281739079C
:1043400081F4F7012181328143815481F801848510
:104350009585A685B785281739074A075B0709F4AD
:1043600050C02F813885F501808191812817390748
:1043700041F42D813E81828193812817390709F408
:1043800040C02D813E81F501828193812817390734
:1043900041F58F819885892B21F589819A81AB819F
:1043A000BC810097A105B105E1F4F80184859585EC
:1043B000A685B78589839A83AB83BC83F501808109
:1043C000918198878F83FB018681898787818A877E
:1043D00080858B8781858C8782858D8783858E8775
:1043E00010C00894C11CD11C86E190E0E80EF91EB3
:1043F000669694E0C916D10409F091CF8FEFC82ECC
:10440000D82EC601EAE0CDB7DEB70C94836B20E06E
:1044100030E0E2E2FBE380817696882339F02F5F7B
:104420003F4F24303105B9F72FEF3FEFC901089511
:10443000EF92FF920F931F939C01FA01049718F0DB
:104440008FEF9FEF34C0868599278F709070880F0B
:10445000991F880F991F8F01025F1F4F080F191FA7
:1044600086E190E0289F7001299FF00C389FF00CA6
:10447000112482E29BE3E80EF91EF7018781908503
:10448000F80193838283F70185819681F8019183F6
:10449000808317821682CB0108960E946620F8015D
:1044A000958384838EE1F701858B80E090E01F91F6
:1044B0000F91FF90EF900895A0E0B0E0E2E6F2E205
:1044C0000C94676B7C016B015A010E940722EC017E
:1044D0008FEFCF3FD80701F186E190E0C89F8001C0
:1044E000C99F100DD89F100D11240E5D144C80E152
:1044F000F801808310861782C7010E946620F801A8
:10450000968385831182128213821482128A118A01
:10451000D08AC786B48AA38ACE01EAE0CDB7DEB7D7
:104520000C94836B8F929F92BF92CF92DF92EF9207
:10453000FF920F931F93CF93DF936B017EE0872E43
:10454000912C8C0C9D1CF601B684C6010E9473212F
:104550007C018F5F9F4F09F466C086E190E0E89E82
:104560008001E99E100DF89E100D11240E5D144C73
:10457000D8018C91803209F456C0CB2DDD27CF7045
:10458000D070CC0FDD1FCC0FDD1FC80DD91D8C8165
:104590009D810E946620089709F445C08C819D8109
:1045A0000E946620F80127853089089782179307B3
:1045B00040F48C819D810E9466209C0128503040EF
:1045C00003C0F8012785308986E190E0E89EF0017C
:1045D000E99EF00DF89EF00D1124EE5DF44C328B47
:1045E000218B80E280838EE1858BD4018C91A82F72
:1045F000BB27AF70B070AA0FBB1FAA0FBB1FA20FC3
:10460000B31F5596AC0DBD1DEF0107C0EB89FC89AA
:10461000E20FF31F8C918083119721503040EFEF10
:104620002F3F3E0799F7DF91CF911F910F91FF9098
:10463000EF90DF90CF90BF909F908F900895A0E073
:10464000B0E0E5E2F3E20C94616B4C015B018A019E
:104650004DB65EB684E08816910418F08FEF9FEF98
:104660004FC00E94C31CEAE26E2E712C6A0C7B1CA8
:10467000EDB7FEB7E619F7090FB6F894FEBF0FBE07
:10468000EDBFCDB6DEB60894C11CD11C85E487878A
:10469000ADB7BEB79B9620E030E0F80104C0819131
:1046A0008D932F5F3F4F2A153B05C9F786E190E0B8
:1046B000889E7001899EF00C989EF00C1124F701E1
:1046C000EE5DF44C61817281838194819501285F54
:1046D0003F4F860141E10E94AA1FA601B501C40116
:1046E0000E941822B601C701855D944C0E94AA1C45
:1046F000B601C3010E94C71C0E94BF1C80E090E06D
:104700000FB6F8945EBE0FBE4DBEE0E10C947D6B1B
:10471000A0E0B0E0EEE8F3E20C94636B5B016C01A7
:104720007A0139010E9407224C018FEF88168FEF22
:10473000980609F485C086E190E0889EE001899E94
:10474000D00D989ED00D1124CE5DD44C80E188838D
:10475000C7010E94662098878F8383E4E816F104DE
:1047600039F484E490E00E9466209E838D8304C027
:10477000E094F094FE82ED8286E190E0889EE00174
:10478000899ED00D989ED00D1124FE01EE5DF44C53
:10479000A182B282C382D482128A118A708A678609
:1047A000148B038B8EE1858B8FEFA8168FEFB806E5
:1047B0008FEFC8068FEFD80641F100910A221091C1
:1047C0000B2220910C2230910D22009510952095FE
:1047D0003095B601A50140235123622373238091B4
:1047E000062290910722A0910822B09109228023ED
:1047F0009123A223B323481759076A077B0799F42B
:10480000401751076207730741F48FEF8187828752
:10481000838784878587868713C0AE01455D544CA6
:10482000C601B5010BC0AE01455D544C60910E222E
:1048300070910F2280911022909111220E94651E8A
:10484000C401EEE0CDB7DEB70C947F6B80917C3B6A
:10485000882319F480E090E008958091A24B88238A
:1048600019F481E090E008958091C85B882319F0E5
:104870008FEF9FEF089582E090E00895EF92FF920E
:104880000F931F93CF93DF93FC018C01025F1F4FA7
:104890008685E82FFF27EF70F070EE0FFF1FEE0FF9
:1048A000FF1FE00FF11F60E070E08CE7E82E8BE364
:1048B000F82ED7018C918823E9F0E7012A813B810A
:1048C0008081918128173907A9F42C813D8182814B
:1048D00093812817390771F42E813F8148855985C6
:1048E000E8018C859D85AE85BF85281739074A0765
:1048F0005B0759F06F5F7F4F86E290E1E80EF91E8B
:1049000063307105B1F66FEF7FEFCB01E6E0CDB715
:10491000DEB70C94876BAC0120E030E0EEEEFBE6F6
:1049200080819181892B29F45183408380E090E03C
:1049300008952F5F3F4F32962430310589F78FEF6E
:104940009FEF08959C018091EE6B9091EF6B821721
:10495000930721F41092EF6B1092EE6B8091F06B45
:104960009091F16B8217930721F41092F16B1092E2
:10497000F06B8091F26B9091F36B8217930721F4A7
:104980001092F36B1092F26B8091F46B9091F56B37
:104990008217930721F41092F56B1092F46B08952F
:1049A0009C01EEEEFBE6819191918217930719F439
:1049B00080E090E008958BE6E63FF807A1F78FEFDF
:1049C0009FEF089526E230E1829FF001839FF00D72
:1049D000929FF00D1124E458F44C8081992708959A
:1049E000A0E0B0E0E6EFF4E20C94696B6C01EE2419
:1049F000FF24CCE7DBE30C811D81C6010E94662009
:104A00000817190731F488818F3019F480E1888301
:104A10000CC00894E11CF11CCA5DDF4E83E0E8166F
:104A2000F10449F72FEFE22EF22EC701E8E0CDB7EF
:104A3000DEB70C94856B9C01039798F486E290E1B5
:104A4000289FF001299FF00D389FF00D1124E458A4
:104A5000F44C8081882329F082A193A10E94B43C68
:104A600008958FEF9FEF08959C01039798F486E2D5
:104A700090E1289FF001299FF00D389FF00D11243F
:104A8000E458F44C8081882329F082A193A10E94EC
:104A9000283C08958FEF9FEF08958F929F92AF92D9
:104AA000BF92CF92DF92FF920F931F93CF93DF932A
:104AB0004C015B016A01EA012E96FA01068586E245
:104AC00090E1889EF001899EF00D989EF00D1124D2
:104AD000E458F44C82A193A10E94E63C8A159B0500
:104AE00020F46FEFA62EB62E39C0802F99278F7035
:104AF0009070880F991F880F991FC80FD91F8C8538
:104B0000F601068511270F701070000F111F000F9E
:104B1000111F025F1F4F9927807F90709595879591
:104B200095958795080F191F0E94C31CFFB67894AE
:104B300086E290E1889EF001899EF00D989EF00D2E
:104B40001124E458F44C82A193A10C0D1D1DA80161
:104B5000B5010E94B63EFFBE0E94BF1CC501DF9199
:104B6000CF911F910F91FF90DF90CF90BF90AF90AA
:104B70009F908F900895A0E0B0E0E1ECF5E20C94F6
:104B8000676BEC01EEE0CE2ED12CC80ED91EEE8460
:104B90000E9426245C018FEFA8168FEFB80609F457
:104BA00066C0FF24EFE0EE22FF24EE0CFF1CEE0CAB
:104BB000FF1CEC0CFD1CF7012081318186E290E1A5
:104BC000A89E8001A99E100DB89E100D11240458B6
:104BD000144CF80133832283F70182819381F80119
:104BE00095838483F60184859585A685B785F8012C
:104BF00086839783A087B187F70164817581868159
:104C000097810E9437206095709580959095F80166
:104C10006287738784879587F701648175818681B0
:104C200097810E943720F80166877787808B918B68
:104C300011828AE090E0918F808F82A193A10E94DF
:104C4000B43CF70186859785F801938B828B148A93
:104C5000158A168A178A8E81828F8F81838F888525
:104C6000848F8985858F8A85868F8B85878FC501FF
:104C7000EAE0CDB7DEB70C94836B2F923F924F9250
:104C80005F926F927F928F929F92AF92BF92DF92CC
:104C9000EF92FF920F931F93CF93DF931C01D62EB9
:104CA0003A0179015801E801A296A6E18A2E912CD9
:104CB000800E911E86E290E1289E8001299E100DB3
:104CC000389E100D11240458144CF80186819781E8
:104CD000A085B185F501868B978BA08FB18F8091D0
:104CE000062290910722A0910822B0910922F40196
:104CF00084839583A683B783108686E08187F8E155
:104D00004F2E512C440E551EC2010E946620F40104
:104D100093878287F80184819581F50193A382A30B
:104D2000F801828193819B838A8362857385848560
:104D300095850E9437206C837D838E839F83F80145
:104D400066857785808991890E9437206887798771
:104D50008A879B8780E68C87DD86C7010E94662054
:104D60009F878E87198A188A1B8A1A8AF801808180
:104D7000813049F482E08C8B84E08D8B85E08E8BD2
:104D80008CEA8F8B04C01C8A1D8A1E8A1F8A84E2CB
:104D900090E0680E791EB301C4010E946E200E944B
:104DA0006620998B888B86E290E1289E7001299E6F
:104DB000F00C389EF00C1124F701E458F44C668195
:104DC0007781808591858501920146E00E94AA1F26
:104DD000B501C7018A56944C0E94AA1CB501C301B3
:104DE00046960E94C71CDF91CF911F910F91FF90B3
:104DF000EF90DF90BF90AF909F908F907F906F90DB
:104E00005F904F903F902F900895A0E0B0E0EBE0CE
:104E1000F7E20C945F6B4B015C012A012DB63EB6A4
:104E20000E9426246C018FEFC8168FEFD80609F474
:104E300002C120910A2230910B2240910C22509104
:104E40000D22209530954095509585017401E22200
:104E5000F322042315238091062290910722A0912A
:104E60000822B091092282239323A423B523E816B4
:104E7000F9060A071B07E9F5E216F306040715070A
:104E800099F486E290E1C89EF001C99EF00DD89E8B
:104E9000F00D1124E458F44C8FEF828F838F848FB0
:104EA000858F868F878F3DC086E290E1C89EA001E6
:104EB000C99E500DD89E500D11244A56544CC50120
:104EC000B4012AC08F2D0E945218830120E030E1E6
:104ED00040E050E060E1C6010E943D260E94BF1CF8
:104EE000AAC0F80110828F2D0E9452180E94BF1C88
:104EF0009FC086E290E1C89EA001C99E500DD89E39
:104F0000500D11244A56544C60910E2270910F227C
:104F100080911022909111220E94651E019709F440
:104F200087C00E94C31C86E290E1C89E8001C99E92
:104F3000100DD89E100D11240458144C81E0F80176
:104F400080838091FB392091FC3999278095909539
:104F5000820F911D958384838DB79EB7CA970FB634
:104F6000F8949EBF0FBE8DBF6DB67EB60894611CCF
:104F7000711CC2010E946620F8019383828386829D
:104F80009782A086B18687E899EAABECBDEE82876E
:104F90009387A487B58716861786108A118A11828F
:104FA0008AE090E0918F808F82A193A10E94B43C0F
:104FB000F801138A128A148A158A168A178A82A11E
:104FC00093A10E94283C20E030E1281B390B83018B
:104FD00040E050E062E0C6010E943D260E94BF1CF6
:104FE0000E94C618F82E41E064EF71E00E949F18FD
:104FF0000E94C31C86E290E1C89E8001C99E100DEC
:10500000D89E100D11240458144CF8018081803171
:1050100031F48F2D0E948218892B09F053CF8F2DE8
:105020000E948218892B09F45CCF0E94BF1CE0CF3C
:10503000BFEFCB2EDB2EC6010FB6F8943EBE0FBEDF
:105040002DBEE2E10C947B6B8F929F92BF92CF9228
:10505000DF92EF92FF920F931F93CF93DF93CDB721
:10506000DEB76C018DB69EB683E0C816D10408F099
:1050700046C086E290E1C89E7001C99EF00CD89EA1
:10508000F00C1124ECE7FBE3EE0EFF1EF70180812C
:105090008823A9F182A193A10E94283C892B79F150
:1050A0000E94C31CF70182A193A10E947C3CB82EF0
:1050B000F70182A193A10E94283C892BD9F48DB7D6
:1050C0009EB7CA970FB6F8949EBF0FBE8DBF0DB79F
:1050D0001EB70F5F1F4FF70182A193A10E94283CCA
:1050E00020E030E1281B390B40E050E060E1C601D0
:1050F0000E943D260E94BF1C8B2D992702C080E094
:1051000090E00FB6F8949EBE0FBE8DBEDF91CF919A
:105110001F910F91FF90EF90DF90CF90BF909F90E5
:105120008F900895A0E0B0E0E8E9F8E20C94636B9A
:105130006C017B014A016DB67EB6039708F090C002
:1051400086E290E1C89E8001C99E100DD89E100D88
:1051500011240458144CF8018081882309F480C07C
:1051600082A193A10E94283C892B19F4AA24BB2474
:105170007AC00E94C31CF80182A193A10E94283C1E
:10518000E816F90650F4F80182A193A1A401B70131
:105190000E94003DAA24BB2430C0F80182A193A143
:1051A0000E94283C5C0100E010E0740114C086E21B
:1051B00090E1C89EF001C99EF00DD89EF00D11241B
:1051C000E458F44C82A193A10E947C3CF7018193A6
:1051D0007F010F5F1F4F0A151B0549F786E290E11B
:1051E000C89EF001C99EF00DD89EF00D1124E45820
:1051F000F44C82A193A10E94B43C86E290E1C89E47
:105200007001C99EF00CD89EF00C11248CE79BE332
:10521000E80EF91EF70182A193A10E94283C80505C
:105220009840D8F48DB79EB7CA970FB6F8949EBF32
:105230000FBE8DBF0DB71EB70F5F1F4FF70182A1C5
:1052400093A10E94283C20E030E1281B390B40E06C
:1052500050E060E1C6010E943D260E94BF1C03C0D1
:105260001FEFA12EB12EC5010FB6F8947EBE0FBE62
:105270006DBEEEE00C947F6BA0E0B0E0E2E4F9E2FA
:105280000C94656B5C018B016A018DB69EB6039729
:1052900008F05BC086E290E1A89E7001A99EF00C28
:1052A000B89EF00C11248CE79BE3E80EF91EF70181
:1052B0008081882309F449C082A193A10E94283CDF
:1052C000892B11F10E94C31CF70182A193A10E94B6
:1052D000283C8C159D05B0F0C8010E94E63C8C1559
:1052E0009D0580F0F70182A193A1A801B6010E945B
:1052F0009E3DF70182A193A10E94283C80509840D6
:1053000008F505C00E94BF1CCC24DD2421C08DB748
:105310009EB7CA970FB6F8949EBF0FBE8DBF0DB74C
:105320001EB70F5F1F4FF70182A193A10E94283C77
:1053300020E030E1281B390B40E050E060E1C5017E
:105340000E943D260E94BF1C03C00FEFC02ED02E2E
:10535000C6010FB6F8949EBE0FBE8DBEECE00C9455
:10536000816BA0E0B0E0E7EBF9E20C94616B6C01BB
:105370003B014A014DB65EB6039708F078C086E25D
:1053800090E1C89E8001C99E100DD89E100D112479
:105390000458144CF8018081882309F468C082A164
:1053A00093A10E94283C892B19F4AA24BB2462C033
:1053B0000E94C31CF80182A193A10E94283C7C0199
:1053C000AA24BB2484011AC086E290E1C89EF001A1
:1053D000C99EF00DD89EF00D1124E458F44C82A122
:1053E00093A10E947C3CF8018083833169F0803175
:1053F00059F00894A11CB11C0F5F1F4FA614B704ED
:1054000019F0AE14BF0401F786E290E1C89E700166
:10541000C99EF00CD89EF00C11248CE79BE3E80E9B
:10542000F91EF70182A193A10E94283C805092406E
:10543000D8F48DB79EB7CA970FB6F8949EBF0FBE2B
:105440008DBF0DB71EB70F5F1F4FF70182A193A14C
:105450000E94283C20E030E1281B390B40E050E05E
:1054600060E1C6010E943D260E94BF1C03C08FEF71
:10547000A82EB82EC5010FB6F8945EBE0FBE4DBE65
:10548000E0E10C947D6BA0E0B0E0E9E4FAE20C947A
:105490005F6B3C014B0128012DB63EB6039708F027
:1054A000A9C086E290E1689EF001699EF00D789EA9
:1054B000F00D1124E458F44C8081882309F49AC03B
:1054C000C401CA96EDB7FEB7E81BF90B0FB6F89406
:1054D000FEBF0FBEEDBF0DB71EB70F5F1F4F2223DC
:1054E00049F0213009F0B3C0ADB7BEB7DB9680E01C
:1054F00090E015C0ADB7BEB7DB9620E030E0FA0112
:1055000004C081918D932F5F3F4F28153905C9F74E
:1055100009C0FA01E80FF91FE491ED93019688158F
:105520009905B9F70E94C31C86E290E1689E70015C
:10553000699EF00C789EF00C11246CE77BE3E60E7C
:10554000F71EF70182A193A10E94283C20E030E1E0
:10555000281B390BA40168E1C3010E943D26F70115
:1055600082859385A485B5855401CC24DD248A0DDC
:105570009B1DAC1DBD1D82879387A487B587A48A18
:10558000B58AC68AD78A0E94BF1C0E94C618182FE7
:105590001414150424F041E069E170E00BC0F1E05F
:1055A0004F16510421F065E04616510434F441E0F1
:1055B00068EC70E0812F0E949F180E94C31C812F0D
:1055C0000E948218892BF1F086E290E1689EF0013A
:1055D000699EF00D789EF00D1124E458F44C8489F6
:1055E0009589A689B7890097A105B10521F00E9488
:1055F000BF1CE3CF2FC0812F0E9452180E94BF1CF6
:10560000A40127C0812F0E94521886E290E1689E73
:10561000F001699EF00D789EF00D1124E458F44CD1
:1056200082859385A485B5858A199B09AC09BD0936
:1056300082879387A487B5870E94BF1C80913827F3
:1056400090913927019690933927809338274FEF0F
:105650005FEFCA010FB6F8943EBE0FBE2DBEE2E169
:105660000C947B6B2F923F925F926F927F928F92FE
:105670009F92AF92BF92CF92DF92EF92FF920F93E1
:105680001F93CF93DF935C013B011A01522E0397C6
:1056900008F06CC086E290E1A89EF001A99EF00D92
:1056A000B89EF00D1124E458F44C8081882309F44D
:1056B0005DC0CB016CEA75E00E94FB6A6B01710171
:1056C0008824992420C0552029F081E0581609F03B
:1056D0004DC003C08E0120E002C08E0121E0A70171
:1056E0006CEA75E0C5010E94432A8F5F9F4F21F449
:1056F0002196C530D1053CF30894811C911C8CEA9D
:1057000095E0E80EF91E8C149D041CF4C0E0D0E076
:10571000DACFC3016CEA75E00E94FB6A6C01892B49
:1057200041F18CEA95E0889E7001899EF00C989E6C
:10573000F00C1124E20CF31CC0E0D0E0552021F065
:1057400091E0591699F403C08E0120E002C08E0149
:1057500021E0A701B601C5010E94432A8F5F9F4F38
:1057600041F42196C530D10524F4E8CF9FEF692E8E
:10577000792EC301DF91CF911F910F91FF90EF9090
:10578000DF90CF90BF90AF909F908F907F906F9061
:105790005F903F902F90089520E00E94322B089553
:1057A00021E00E94322B0895A0E0B0E0EAEDFBE298
:1057B0000C94656B6C018DB69EB683E0C816D1045F
:1057C00008F09EC086E290E1C89EF001C99EF00DEF
:1057D000D89EF00D1124E458F44C8081882309F4FC
:1057E0008FC00E94C618182F41E068EC70E00E943C
:1057F0009F1886E290E1C89E7001C99EF00CD89E69
:10580000F00C1124ECE7FBE3EE0EFF1EF7018181A3
:10581000882329F4812F0E948218892B21F5812F5A
:105820000E948218892B29F7F7011082812F66C008
:105830000E94C31C86E290E1C89EF001C99EF00D53
:10584000D89EF00D1124E458F44C80818823A1F5F2
:105850008F2D0E948218892B79F18F2D0E9452186A
:105860000E94BF1C4DC0812F0E9452180E94C31C71
:105870008DB79EB7CA970FB6F8949EBF0FBE8DBF67
:10588000ADB6BEB60894A11CB11C850120E030E085
:1058900040E050E061E1C6010E943D2681E8F70149
:1058A00080830E94BF1C0E94C618F82E41E068EC5D
:1058B00070E00E949F18BCCF0E94BF1C8F2D0E94D9
:1058C0008218892B09F0B4CF0E94C31C850120E007
:1058D00030E040E050E061E0C6010E943D2686E2F3
:1058E00090E1C89EF001C99EF00DD89EF00D1124E4
:1058F000E458F44C10820E94BF1C8F2D0E94521855
:105900000FB6F8949EBE0FBE8DBEECE00C94816B7A
:10591000A0E0B0E0EEE8FCE20C94676BADB6BEB67A
:10592000CC24DD242CE7E22E2BE3F22EF701808D30
:10593000918D892B29F0808D918D0197918F808F8A
:10594000F701808D918D892BE9F480818823D1F036
:105950008DB79EB7CA970FB6F8949EBF0FBE8DBF86
:105960000DB71EB70F5F1F4F0E94C31C20E030E031
:1059700040E050E061E1C6010E943D26F70110823F
:105980000E94BF1C0894C11CD11C86E290E1E80E65
:10599000F91E93E0C916D10449F60FB6F894BEBEBD
:1059A0000FBEADBEEAE00C94836BA4E0B0E0EBED7B
:1059B000FCE20C945F6B1B01FEE0CF2ED12CC60ED7
:1059C000D71EFB018685482E5524FFE04F22552423
:1059D000440C551C440C551C4C0C5D1CCB010E9406
:1059E0003E249A838983F201858583718587298185
:1059F0003A812F5F3F4F39F5828193810E94662063
:105A00000E94D0248F5F9F4FF1F4C1010E94BB25FB
:105A10007C01BFEF8F3F9B0709F459C3810120E050
:105A200030E040E050E064E00E943D2686E290E1F4
:105A3000E89EF001E99EF00DF89EF00D1124E45867
:105A4000F44C108244C3F2018585823009F046C0CF
:105A5000C1010E94BB256C018F5F9F4F09F437C3C2
:105A600086E290E1C89E7001C99EF00CD89EF00CB1
:105A700011242CE73BE3E20EF31E81E0D7018C9367
:105A8000F20186859785F701938B828B86859785B2
:105A9000A089B1890196A11DB11D86879787A08B2A
:105AA000B18B810120E030E140E050E062E1C601CD
:105AB0000E943D26F70182859385A485B5850196D0
:105AC000A11DB11D82879387A487B58784E0808359
:105AD000118282E090E0918F808FF9C229813A8112
